{
  "address": "0xe7f1725E7734CE288F8367e1Bb143E90bb3F0512",
  "abi": [
    {
      "inputs": [
        {
          "internalType": "address",
          "name": "priceFeedAddress",
          "type": "address"
        }
      ],
      "stateMutability": "nonpayable",
      "type": "constructor"
    },
    {
      "inputs": [],
      "name": "FundMe__NotOwner",
      "type": "error"
    },
    {
      "stateMutability": "payable",
      "type": "fallback"
    },
    {
      "inputs": [],
      "name": "MINIMUM_USD",
      "outputs": [
        {
          "internalType": "uint256",
          "name": "",
          "type": "uint256"
        }
      ],
      "stateMutability": "view",
      "type": "function"
    },
    {
      "inputs": [],
      "name": "cheaperWithdraw",
      "outputs": [],
      "stateMutability": "payable",
      "type": "function"
    },
    {
      "inputs": [],
      "name": "fund",
      "outputs": [],
      "stateMutability": "payable",
      "type": "function"
    },
    {
      "inputs": [
        {
          "internalType": "uint256",
          "name": "ethAmount",
          "type": "uint256"
        },
        {
          "internalType": "contract AggregatorV3Interface",
          "name": "priceFeed",
          "type": "address"
        }
      ],
      "name": "getConversionRate",
      "outputs": [
        {
          "internalType": "uint256",
          "name": "",
          "type": "uint256"
        }
      ],
      "stateMutability": "view",
      "type": "function"
    },
    {
      "inputs": [
        {
          "internalType": "contract AggregatorV3Interface",
          "name": "priceFeed",
          "type": "address"
        }
      ],
      "name": "getPrice",
      "outputs": [
        {
          "internalType": "uint256",
          "name": "",
          "type": "uint256"
        }
      ],
      "stateMutability": "view",
      "type": "function"
    },
    {
      "inputs": [
        {
          "internalType": "address",
          "name": "",
          "type": "address"
        }
      ],
      "name": "s_addressToAmountFunded",
      "outputs": [
        {
          "internalType": "uint256",
          "name": "",
          "type": "uint256"
        }
      ],
      "stateMutability": "view",
      "type": "function"
    },
    {
      "inputs": [
        {
          "internalType": "uint256",
          "name": "",
          "type": "uint256"
        }
      ],
      "name": "s_funders",
      "outputs": [
        {
          "internalType": "address",
          "name": "",
          "type": "address"
        }
      ],
      "stateMutability": "view",
      "type": "function"
    },
    {
      "inputs": [],
      "name": "s_priceFeed",
      "outputs": [
        {
          "internalType": "contract AggregatorV3Interface",
          "name": "",
          "type": "address"
        }
      ],
      "stateMutability": "view",
      "type": "function"
    },
    {
      "inputs": [],
      "name": "withdraw",
      "outputs": [],
      "stateMutability": "nonpayable",
      "type": "function"
    },
    {
      "stateMutability": "payable",
      "type": "receive"
    }
  ],
  "transactionHash": "0x8f5b6c0bdb0e67d14c5258a05e63ed1dbce2e91f7dcef6ab04fbf2e033679c9b",
  "args": [
    "0x5FbDB2315678afecb367f032d93F642f64180aa3"
  ],
  "numDeployments": 1,
  "solcInputHash": "94e3155fbfe1ec4813ea8f519f0e20a9",
  "bytecode": "0x60a06040523480156200001157600080fd5b50604051620013be380380620013be83398181016040528101906200003791906200011f565b3373ffffffffffffffffffffffffffffffffffffffff1660808173ffffffffffffffffffffffffffffffffffffffff1660601b81525050806000806101000a81548173ffffffffffffffffffffffffffffffffffffffff021916908373ffffffffffffffffffffffffffffffffffffffff1602179055505062000151565b600080fd5b600073ffffffffffffffffffffffffffffffffffffffff82169050919050565b6000620000e782620000ba565b9050919050565b620000f981620000da565b81146200010557600080fd5b50565b6000815190506200011981620000ee565b92915050565b600060208284031215620001385762000137620000b5565b5b6000620001488482850162000108565b91505092915050565b60805160601c6112396200018560003960008181610374015281816103f901528181610749015261085901526112396000f3fe60806040526004361061008a5760003560e01c806354861af71161005957806354861af71461015f5780636b69a5921461019c57806398e70cf9146101c7578063b60d428814610204578063be2693f01461020e57610099565b80630ec3b027146100a35780631bf6132d146100ce5780633ccfd60b1461010b57806341976e091461012257610099565b3661009957610097610218565b005b6100a1610218565b005b3480156100af57600080fd5b506100b8610336565b6040516100c59190610b7e565b60405180910390f35b3480156100da57600080fd5b506100f560048036038101906100f09190610bdc565b61035a565b6040516101029190610c22565b60405180910390f35b34801561011757600080fd5b50610120610372565b005b34801561012e57600080fd5b5061014960048036038101906101449190610c7b565b61061f565b6040516101569190610c22565b60405180910390f35b34801561016b57600080fd5b5061018660048036038101906101819190610cd4565b6106bf565b6040516101939190610d10565b60405180910390f35b3480156101a857600080fd5b506101b16106fe565b6040516101be9190610c22565b60405180910390f35b3480156101d357600080fd5b506101ee60048036038101906101e99190610d2b565b61070b565b6040516101fb9190610c22565b60405180910390f35b61020c610218565b005b610216610747565b005b6802b5e3af16b188000061024c3460008054906101000a900473ffffffffffffffffffffffffffffffffffffffff1661070b565b101561028d576040517f08c379a000000000000000000000000000000000000000000000000000000000815260040161028490610dc8565b60405180910390fd5b6001339080600181540180825580915050600190039060005260206000200160009091909190916101000a81548173ffffffffffffffffffffffffffffffffffffffff021916908373ffffffffffffffffffffffffffffffffffffffff16021790555034600260003373ffffffffffffffffffffffffffffffffffffffff1673ffffffffffffffffffffffffffffffffffffffff16815260200190815260200160002081905550565b60008054906101000a900473ffffffffffffffffffffffffffffffffffffffff1681565b60026020528060005260406000206000915090505481565b7f000000000000000000000000000000000000000000000000000000000000000073ffffffffffffffffffffffffffffffffffffffff163373ffffffffffffffffffffffffffffffffffffffff16146103f7576040517f579610db00000000000000000000000000000000000000000000000000000000815260040160405180910390fd5b7f000000000000000000000000000000000000000000000000000000000000000073ffffffffffffffffffffffffffffffffffffffff163373ffffffffffffffffffffffffffffffffffffffff161461044f57600080fd5b60005b6001805490508110156104fb5760006001828154811061047557610474610de8565b5b9060005260206000200160009054906101000a900473ffffffffffffffffffffffffffffffffffffffff1690506000600260008373ffffffffffffffffffffffffffffffffffffffff1673ffffffffffffffffffffffffffffffffffffffff168152602001908152602001600020819055505080806104f390610e46565b915050610452565b50600067ffffffffffffffff81111561051757610516610e8f565b5b6040519080825280602002602001820160405280156105455781602001602082028036833780820191505090505b506001908051906020019061055b929190610a58565b503373ffffffffffffffffffffffffffffffffffffffff166108fc479081150290604051600060405180830381858888f193505050501580156105a2573d6000803e3d6000fd5b5060003373ffffffffffffffffffffffffffffffffffffffff166108fc479081150290604051600060405180830381858888f1935050505090508061061c576040517f08c379a000000000000000000000000000000000000000000000000000000000815260040161061390610f0a565b60405180910390fd5b50565b6000808273ffffffffffffffffffffffffffffffffffffffff1663feaf968c6040518163ffffffff1660e01b815260040160a06040518083038186803b15801561066857600080fd5b505afa15801561067c573d6000803e3d6000fd5b505050506040513d601f19601f820116820180604052508101906106a09190610fb7565b5050509150506402540be400816106b79190611032565b915050919050565b600181815481106106cf57600080fd5b906000526020600020016000915054906101000a900473ffffffffffffffffffffffffffffffffffffffff1681565b6802b5e3af16b188000081565b6000806107178361061f565b90506000670de0b6b3a764000085836107309190611149565b61073a91906111d2565b9050809250505092915050565b7f000000000000000000000000000000000000000000000000000000000000000073ffffffffffffffffffffffffffffffffffffffff163373ffffffffffffffffffffffffffffffffffffffff16146107cc576040517f579610db00000000000000000000000000000000000000000000000000000000815260040160405180910390fd5b6000600180548060200260200160405190810160405280929190818152602001828054801561085057602002820191906000526020600020905b8160009054906101000a900473ffffffffffffffffffffffffffffffffffffffff1673ffffffffffffffffffffffffffffffffffffffff1681526020019060010190808311610806575b505050505090507f000000000000000000000000000000000000000000000000000000000000000073ffffffffffffffffffffffffffffffffffffffff163373ffffffffffffffffffffffffffffffffffffffff16146108af57600080fd5b60005b81518110156109335760008282815181106108d0576108cf610de8565b5b602002602001015190506000600260008373ffffffffffffffffffffffffffffffffffffffff1673ffffffffffffffffffffffffffffffffffffffff1681526020019081526020016000208190555050808061092b90610e46565b9150506108b2565b50600067ffffffffffffffff81111561094f5761094e610e8f565b5b60405190808252806020026020018201604052801561097d5781602001602082028036833780820191505090505b5060019080519060200190610993929190610a58565b503373ffffffffffffffffffffffffffffffffffffffff166108fc479081150290604051600060405180830381858888f193505050501580156109da573d6000803e3d6000fd5b5060003373ffffffffffffffffffffffffffffffffffffffff166108fc479081150290604051600060405180830381858888f19350505050905080610a54576040517f08c379a0000000000000000000000000000000000000000000000000000000008152600401610a4b90610f0a565b60405180910390fd5b5050565b828054828255906000526020600020908101928215610ad1579160200282015b82811115610ad05782518260006101000a81548173ffffffffffffffffffffffffffffffffffffffff021916908373ffffffffffffffffffffffffffffffffffffffff16021790555091602001919060010190610a78565b5b509050610ade9190610ae2565b5090565b5b80821115610afb576000816000905550600101610ae3565b5090565b600073ffffffffffffffffffffffffffffffffffffffff82169050919050565b6000819050919050565b6000610b44610b3f610b3a84610aff565b610b1f565b610aff565b9050919050565b6000610b5682610b29565b9050919050565b6000610b6882610b4b565b9050919050565b610b7881610b5d565b82525050565b6000602082019050610b936000830184610b6f565b92915050565b600080fd5b6000610ba982610aff565b9050919050565b610bb981610b9e565b8114610bc457600080fd5b50565b600081359050610bd681610bb0565b92915050565b600060208284031215610bf257610bf1610b99565b5b6000610c0084828501610bc7565b91505092915050565b6000819050919050565b610c1c81610c09565b82525050565b6000602082019050610c376000830184610c13565b92915050565b6000610c4882610b9e565b9050919050565b610c5881610c3d565b8114610c6357600080fd5b50565b600081359050610c7581610c4f565b92915050565b600060208284031215610c9157610c90610b99565b5b6000610c9f84828501610c66565b91505092915050565b610cb181610c09565b8114610cbc57600080fd5b50565b600081359050610cce81610ca8565b92915050565b600060208284031215610cea57610ce9610b99565b5b6000610cf884828501610cbf565b91505092915050565b610d0a81610b9e565b82525050565b6000602082019050610d256000830184610d01565b92915050565b60008060408385031215610d4257610d41610b99565b5b6000610d5085828601610cbf565b9250506020610d6185828601610c66565b9150509250929050565b600082825260208201905092915050565b7f4469646e742073656e6420656e6f756768000000000000000000000000000000600082015250565b6000610db2601183610d6b565b9150610dbd82610d7c565b602082019050919050565b60006020820190508181036000830152610de181610da5565b9050919050565b7f4e487b7100000000000000000000000000000000000000000000000000000000600052603260045260246000fd5b7f4e487b7100000000000000000000000000000000000000000000000000000000600052601160045260246000fd5b6000610e5182610c09565b91507fffffffffffffffffffffffffffffffffffffffffffffffffffffffffffffffff821415610e8457610e83610e17565b5b600182019050919050565b7f4e487b7100000000000000000000000000000000000000000000000000000000600052604160045260246000fd5b7f73656e64206661696c6564000000000000000000000000000000000000000000600082015250565b6000610ef4600b83610d6b565b9150610eff82610ebe565b602082019050919050565b60006020820190508181036000830152610f2381610ee7565b9050919050565b600069ffffffffffffffffffff82169050919050565b610f4981610f2a565b8114610f5457600080fd5b50565b600081519050610f6681610f40565b92915050565b6000819050919050565b610f7f81610f6c565b8114610f8a57600080fd5b50565b600081519050610f9c81610f76565b92915050565b600081519050610fb181610ca8565b92915050565b600080600080600060a08688031215610fd357610fd2610b99565b5b6000610fe188828901610f57565b9550506020610ff288828901610f8d565b945050604061100388828901610fa2565b935050606061101488828901610fa2565b925050608061102588828901610f57565b9150509295509295909350565b600061103d82610f6c565b915061104883610f6c565b9250827f7fffffffffffffffffffffffffffffffffffffffffffffffffffffffffffffff048211600084136000841316161561108757611086610e17565b5b817f800000000000000000000000000000000000000000000000000000000000000005831260008412600084131616156110c4576110c3610e17565b5b827f8000000000000000000000000000000000000000000000000000000000000000058212600084136000841216161561110157611100610e17565b5b827f7fffffffffffffffffffffffffffffffffffffffffffffffffffffffffffffff058212600084126000841216161561113e5761113d610e17565b5b828202905092915050565b600061115482610c09565b915061115f83610c09565b9250817fffffffffffffffffffffffffffffffffffffffffffffffffffffffffffffffff048311821515161561119857611197610e17565b5b828202905092915050565b7f4e487b7100000000000000000000000000000000000000000000000000000000600052601260045260246000fd5b60006111dd82610c09565b91506111e883610c09565b9250826111f8576111f76111a3565b5b82820490509291505056fea26469706673582212201378ec84d5f61dc532bf3c0b104ff9c364e2ed56d41aef04023c0a3ab239471264736f6c63430008080033",
  "devdoc": {
    "author": "Dhananjay Rathod",
    "kind": "dev",
    "methods": {},
    "title": "A contract for the crowd Funding",
    "version": 1
  },
  "userdoc": {
    "kind": "user",
    "methods": {},
    "notice": "This contract is to demo a sample funding contract",
    "version": 1
  },
  "storageLayout": {
    "storage": [
      {
        "astId": 60,
        "contract": "contracts/FundMe.sol:FundMe",
        "label": "s_priceFeed",
        "offset": 0,
        "slot": "0",
        "type": "t_contract(AggregatorV3Interface)45"
      },
      {
        "astId": 63,
        "contract": "contracts/FundMe.sol:FundMe",
        "label": "s_funders",
        "offset": 0,
        "slot": "1",
        "type": "t_array(t_address)dyn_storage"
      },
      {
        "astId": 67,
        "contract": "contracts/FundMe.sol:FundMe",
        "label": "s_addressToAmountFunded",
        "offset": 0,
        "slot": "2",
        "type": "t_mapping(t_address,t_uint256)"
      }
    ],
    "types": {
      "t_address": {
        "encoding": "inplace",
        "label": "address",
        "numberOfBytes": "20"
      },
      "t_array(t_address)dyn_storage": {
        "base": "t_address",
        "encoding": "dynamic_array",
        "label": "address[]",
        "numberOfBytes": "32"
      },
      "t_contract(AggregatorV3Interface)45": {
        "encoding": "inplace",
        "label": "contract AggregatorV3Interface",
        "numberOfBytes": "20"
      },
      "t_mapping(t_address,t_uint256)": {
        "encoding": "mapping",
        "key": "t_address",
        "label": "mapping(address => uint256)",
        "numberOfBytes": "32",
        "value": "t_uint256"
      },
      "t_uint256": {
        "encoding": "inplace",
        "label": "uint256",
        "numberOfBytes": "32"
      }
    }
  }
}