{
  "address": "0xA771A26B87A0fc22FFc9a5A6148065dEe9fCb08f",
  "abi": [
    {
      "inputs": [
        {
          "internalType": "address",
          "name": "priceFeedAddress",
          "type": "address"
        }
      ],
      "stateMutability": "nonpayable",
      "type": "constructor"
    },
    {
      "inputs": [],
      "name": "NotOwner",
      "type": "error"
    },
    {
      "inputs": [
        {
          "internalType": "address",
          "name": "",
          "type": "address"
        }
      ],
      "name": "addressToAmountFunded",
      "outputs": [
        {
          "internalType": "uint256",
          "name": "",
          "type": "uint256"
        }
      ],
      "stateMutability": "view",
      "type": "function"
    },
    {
      "inputs": [],
      "name": "fund",
      "outputs": [],
      "stateMutability": "payable",
      "type": "function"
    },
    {
      "inputs": [
        {
          "internalType": "uint256",
          "name": "",
          "type": "uint256"
        }
      ],
      "name": "funders",
      "outputs": [
        {
          "internalType": "address",
          "name": "",
          "type": "address"
        }
      ],
      "stateMutability": "view",
      "type": "function"
    },
    {
      "inputs": [
        {
          "internalType": "uint256",
          "name": "ethAmount",
          "type": "uint256"
        },
        {
          "internalType": "contract AggregatorV3Interface",
          "name": "priceFeed",
          "type": "address"
        }
      ],
      "name": "getConversionRate",
      "outputs": [
        {
          "internalType": "uint256",
          "name": "",
          "type": "uint256"
        }
      ],
      "stateMutability": "view",
      "type": "function"
    },
    {
      "inputs": [
        {
          "internalType": "contract AggregatorV3Interface",
          "name": "priceFeed",
          "type": "address"
        }
      ],
      "name": "getPrice",
      "outputs": [
        {
          "internalType": "uint256",
          "name": "",
          "type": "uint256"
        }
      ],
      "stateMutability": "view",
      "type": "function"
    },
    {
      "inputs": [],
      "name": "minimumUsd",
      "outputs": [
        {
          "internalType": "uint256",
          "name": "",
          "type": "uint256"
        }
      ],
      "stateMutability": "view",
      "type": "function"
    },
    {
      "inputs": [],
      "name": "owner",
      "outputs": [
        {
          "internalType": "address",
          "name": "",
          "type": "address"
        }
      ],
      "stateMutability": "view",
      "type": "function"
    },
    {
      "inputs": [],
      "name": "priceFeed",
      "outputs": [
        {
          "internalType": "contract AggregatorV3Interface",
          "name": "",
          "type": "address"
        }
      ],
      "stateMutability": "view",
      "type": "function"
    },
    {
      "inputs": [],
      "name": "withdraw",
      "outputs": [],
      "stateMutability": "nonpayable",
      "type": "function"
    }
  ],
  "transactionHash": "0xa0946274c4ba473da60bd92b351dc72132575b400cd5b138a4e5046d887f8bbf",
  "args": [
    "0xD4a33860578De61DBAbDc8BFdb98FD742fA7028e"
  ],
  "numDeployments": 1,
  "solcInputHash": "2cd791c577aeb469a02a53fcdfa26d18",
  "bytecode": "0x60a06040523480156200001157600080fd5b50604051620010d3380380620010d383398181016040528101906200003791906200011f565b3373ffffffffffffffffffffffffffffffffffffffff1660808173ffffffffffffffffffffffffffffffffffffffff1660601b81525050806000806101000a81548173ffffffffffffffffffffffffffffffffffffffff021916908373ffffffffffffffffffffffffffffffffffffffff1602179055505062000151565b600080fd5b600073ffffffffffffffffffffffffffffffffffffffff82169050919050565b6000620000e782620000ba565b9050919050565b620000f981620000da565b81146200010557600080fd5b50565b6000815190506200011981620000ee565b92915050565b600060208284031215620001385762000137620000b5565b5b6000620001488482850162000108565b91505092915050565b60805160601c610f556200017e60003960008181610230015281816102b501526105b90152610f556000f3fe6080604052600436106100865760003560e01c8063741bef1a11610059578063741bef1a146101475780638da5cb5b1461017257806398e70cf91461019d578063b60d4288146101da578063dc0d3dff146101e457610086565b8063098de8201461008b5780633ccfd60b146100b65780633e47d6f3146100cd57806341976e091461010a575b600080fd5b34801561009757600080fd5b506100a0610221565b6040516100ad9190610834565b60405180910390f35b3480156100c257600080fd5b506100cb61022e565b005b3480156100d957600080fd5b506100f460048036038101906100ef91906108b2565b6104db565b6040516101019190610834565b60405180910390f35b34801561011657600080fd5b50610131600480360381019061012c919061091d565b6104f3565b60405161013e9190610834565b60405180910390f35b34801561015357600080fd5b5061015c610593565b60405161016991906109a9565b60405180910390f35b34801561017e57600080fd5b506101876105b7565b60405161019491906109d3565b60405180910390f35b3480156101a957600080fd5b506101c460048036038101906101bf9190610a1a565b6105db565b6040516101d19190610834565b60405180910390f35b6101e2610617565b005b3480156101f057600080fd5b5061020b60048036038101906102069190610a5a565b610735565b60405161021891906109d3565b60405180910390f35b6802b5e3af16b188000081565b7f000000000000000000000000000000000000000000000000000000000000000073ffffffffffffffffffffffffffffffffffffffff163373ffffffffffffffffffffffffffffffffffffffff16146102b3576040517f30cd747100000000000000000000000000000000000000000000000000000000815260040160405180910390fd5b7f000000000000000000000000000000000000000000000000000000000000000073ffffffffffffffffffffffffffffffffffffffff163373ffffffffffffffffffffffffffffffffffffffff161461030b57600080fd5b60005b6001805490508110156103b75760006001828154811061033157610330610a87565b5b9060005260206000200160009054906101000a900473ffffffffffffffffffffffffffffffffffffffff1690506000600260008373ffffffffffffffffffffffffffffffffffffffff1673ffffffffffffffffffffffffffffffffffffffff168152602001908152602001600020819055505080806103af90610ae5565b91505061030e565b50600067ffffffffffffffff8111156103d3576103d2610b2e565b5b6040519080825280602002602001820160405280156104015781602001602082028036833780820191505090505b5060019080519060200190610417929190610774565b503373ffffffffffffffffffffffffffffffffffffffff166108fc479081150290604051600060405180830381858888f1935050505015801561045e573d6000803e3d6000fd5b5060003373ffffffffffffffffffffffffffffffffffffffff166108fc479081150290604051600060405180830381858888f193505050509050806104d8576040517f08c379a00000000000000000000000000000000000000000000000000000000081526004016104cf90610bba565b60405180910390fd5b50565b60026020528060005260406000206000915090505481565b6000808273ffffffffffffffffffffffffffffffffffffffff1663feaf968c6040518163ffffffff1660e01b815260040160a06040518083038186803b15801561053c57600080fd5b505afa158015610550573d6000803e3d6000fd5b505050506040513d601f19601f820116820180604052508101906105749190610c67565b5050509150506402540be4008161058b9190610ce2565b915050919050565b60008054906101000a900473ffffffffffffffffffffffffffffffffffffffff1681565b7f000000000000000000000000000000000000000000000000000000000000000081565b6000806105e7836104f3565b90506000670de0b6b3a764000085836106009190610df9565b61060a9190610e82565b9050809250505092915050565b6802b5e3af16b188000061064b3460008054906101000a900473ffffffffffffffffffffffffffffffffffffffff166105db565b101561068c576040517f08c379a000000000000000000000000000000000000000000000000000000000815260040161068390610eff565b60405180910390fd5b6001339080600181540180825580915050600190039060005260206000200160009091909190916101000a81548173ffffffffffffffffffffffffffffffffffffffff021916908373ffffffffffffffffffffffffffffffffffffffff16021790555034600260003373ffffffffffffffffffffffffffffffffffffffff1673ffffffffffffffffffffffffffffffffffffffff16815260200190815260200160002081905550565b6001818154811061074557600080fd5b906000526020600020016000915054906101000a900473ffffffffffffffffffffffffffffffffffffffff1681565b8280548282559060005260206000209081019282156107ed579160200282015b828111156107ec5782518260006101000a81548173ffffffffffffffffffffffffffffffffffffffff021916908373ffffffffffffffffffffffffffffffffffffffff16021790555091602001919060010190610794565b5b5090506107fa91906107fe565b5090565b5b808211156108175760008160009055506001016107ff565b5090565b6000819050919050565b61082e8161081b565b82525050565b60006020820190506108496000830184610825565b92915050565b600080fd5b600073ffffffffffffffffffffffffffffffffffffffff82169050919050565b600061087f82610854565b9050919050565b61088f81610874565b811461089a57600080fd5b50565b6000813590506108ac81610886565b92915050565b6000602082840312156108c8576108c761084f565b5b60006108d68482850161089d565b91505092915050565b60006108ea82610874565b9050919050565b6108fa816108df565b811461090557600080fd5b50565b600081359050610917816108f1565b92915050565b6000602082840312156109335761093261084f565b5b600061094184828501610908565b91505092915050565b6000819050919050565b600061096f61096a61096584610854565b61094a565b610854565b9050919050565b600061098182610954565b9050919050565b600061099382610976565b9050919050565b6109a381610988565b82525050565b60006020820190506109be600083018461099a565b92915050565b6109cd81610874565b82525050565b60006020820190506109e860008301846109c4565b92915050565b6109f78161081b565b8114610a0257600080fd5b50565b600081359050610a14816109ee565b92915050565b60008060408385031215610a3157610a3061084f565b5b6000610a3f85828601610a05565b9250506020610a5085828601610908565b9150509250929050565b600060208284031215610a7057610a6f61084f565b5b6000610a7e84828501610a05565b91505092915050565b7f4e487b7100000000000000000000000000000000000000000000000000000000600052603260045260246000fd5b7f4e487b7100000000000000000000000000000000000000000000000000000000600052601160045260246000fd5b6000610af08261081b565b91507fffffffffffffffffffffffffffffffffffffffffffffffffffffffffffffffff821415610b2357610b22610ab6565b5b600182019050919050565b7f4e487b7100000000000000000000000000000000000000000000000000000000600052604160045260246000fd5b600082825260208201905092915050565b7f73656e64206661696c6564000000000000000000000000000000000000000000600082015250565b6000610ba4600b83610b5d565b9150610baf82610b6e565b602082019050919050565b60006020820190508181036000830152610bd381610b97565b9050919050565b600069ffffffffffffffffffff82169050919050565b610bf981610bda565b8114610c0457600080fd5b50565b600081519050610c1681610bf0565b92915050565b6000819050919050565b610c2f81610c1c565b8114610c3a57600080fd5b50565b600081519050610c4c81610c26565b92915050565b600081519050610c61816109ee565b92915050565b600080600080600060a08688031215610c8357610c8261084f565b5b6000610c9188828901610c07565b9550506020610ca288828901610c3d565b9450506040610cb388828901610c52565b9350506060610cc488828901610c52565b9250506080610cd588828901610c07565b9150509295509295909350565b6000610ced82610c1c565b9150610cf883610c1c565b9250827f7fffffffffffffffffffffffffffffffffffffffffffffffffffffffffffffff0482116000841360008413161615610d3757610d36610ab6565b5b817f80000000000000000000000000000000000000000000000000000000000000000583126000841260008413161615610d7457610d73610ab6565b5b827f80000000000000000000000000000000000000000000000000000000000000000582126000841360008412161615610db157610db0610ab6565b5b827f7fffffffffffffffffffffffffffffffffffffffffffffffffffffffffffffff0582126000841260008412161615610dee57610ded610ab6565b5b828202905092915050565b6000610e048261081b565b9150610e0f8361081b565b9250817fffffffffffffffffffffffffffffffffffffffffffffffffffffffffffffffff0483118215151615610e4857610e47610ab6565b5b828202905092915050565b7f4e487b7100000000000000000000000000000000000000000000000000000000600052601260045260246000fd5b6000610e8d8261081b565b9150610e988361081b565b925082610ea857610ea7610e53565b5b828204905092915050565b7f4469646e742073656e6420656e6f756768000000000000000000000000000000600082015250565b6000610ee9601183610b5d565b9150610ef482610eb3565b602082019050919050565b60006020820190508181036000830152610f1881610edc565b905091905056fea264697066735822122064ad3d3b488dfe74ee7d1406f36edbc8858a88f617aa9c5ea698266cb31f927164736f6c63430008080033",
  "devdoc": {
    "kind": "dev",
    "methods": {},
    "version": 1
  },
  "userdoc": {
    "kind": "user",
    "methods": {},
    "version": 1
  },
  "storageLayout": {
    "storage": [
      {
        "astId": 53,
        "contract": "contracts/FundMe.sol:FundMe",
        "label": "priceFeed",
        "offset": 0,
        "slot": "0",
        "type": "t_contract(AggregatorV3Interface)45"
      },
      {
        "astId": 78,
        "contract": "contracts/FundMe.sol:FundMe",
        "label": "funders",
        "offset": 0,
        "slot": "1",
        "type": "t_array(t_address)dyn_storage"
      },
      {
        "astId": 82,
        "contract": "contracts/FundMe.sol:FundMe",
        "label": "addressToAmountFunded",
        "offset": 0,
        "slot": "2",
        "type": "t_mapping(t_address,t_uint256)"
      }
    ],
    "types": {
      "t_address": {
        "encoding": "inplace",
        "label": "address",
        "numberOfBytes": "20"
      },
      "t_array(t_address)dyn_storage": {
        "base": "t_address",
        "encoding": "dynamic_array",
        "label": "address[]",
        "numberOfBytes": "32"
      },
      "t_contract(AggregatorV3Interface)45": {
        "encoding": "inplace",
        "label": "contract AggregatorV3Interface",
        "numberOfBytes": "20"
      },
      "t_mapping(t_address,t_uint256)": {
        "encoding": "mapping",
        "key": "t_address",
        "label": "mapping(address => uint256)",
        "numberOfBytes": "32",
        "value": "t_uint256"
      },
      "t_uint256": {
        "encoding": "inplace",
        "label": "uint256",
        "numberOfBytes": "32"
      }
    }
  }
}